{
  "contractName": "SecurityToken",
  "abi": [
    {
      "constant": true,
      "inputs": [],
      "name": "name",
      "outputs": [
        {
          "name": "",
          "type": "string"
        }
      ],
      "payable": false,
      "stateMutability": "view",
      "type": "function"
    },
    {
      "constant": false,
      "inputs": [
        {
          "name": "_spender",
          "type": "address"
        },
        {
          "name": "_value",
          "type": "uint256"
        }
      ],
      "name": "approve",
      "outputs": [
        {
          "name": "",
          "type": "bool"
        }
      ],
      "payable": false,
      "stateMutability": "nonpayable",
      "type": "function"
    },
    {
      "constant": true,
      "inputs": [
        {
          "name": "",
          "type": "address"
        }
      ],
      "name": "investorListed",
      "outputs": [
        {
          "name": "",
          "type": "bool"
        }
      ],
      "payable": false,
      "stateMutability": "view",
      "type": "function"
    },
    {
      "constant": true,
      "inputs": [],
      "name": "totalSupply",
      "outputs": [
        {
          "name": "",
          "type": "uint256"
        }
      ],
      "payable": false,
      "stateMutability": "view",
      "type": "function"
    },
    {
      "constant": true,
      "inputs": [],
      "name": "finishedSTOMinting",
      "outputs": [
        {
          "name": "",
          "type": "bool"
        }
      ],
      "payable": false,
      "stateMutability": "view",
      "type": "function"
    },
    {
      "constant": true,
      "inputs": [],
      "name": "tokenBurner",
      "outputs": [
        {
          "name": "",
          "type": "address"
        }
      ],
      "payable": false,
      "stateMutability": "view",
      "type": "function"
    },
    {
      "constant": true,
      "inputs": [],
      "name": "tickerRegistry",
      "outputs": [
        {
          "name": "",
          "type": "address"
        }
      ],
      "payable": false,
      "stateMutability": "view",
      "type": "function"
    },
    {
      "constant": true,
      "inputs": [],
      "name": "decimals",
      "outputs": [
        {
          "name": "",
          "type": "uint8"
        }
      ],
      "payable": false,
      "stateMutability": "view",
      "type": "function"
    },
    {
      "constant": true,
      "inputs": [],
      "name": "securityTokenVersion",
      "outputs": [
        {
          "name": "",
          "type": "bytes32"
        }
      ],
      "payable": false,
      "stateMutability": "view",
      "type": "function"
    },
    {
      "constant": true,
      "inputs": [
        {
          "name": "",
          "type": "uint256"
        }
      ],
      "name": "investors",
      "outputs": [
        {
          "name": "",
          "type": "address"
        }
      ],
      "payable": false,
      "stateMutability": "view",
      "type": "function"
    },
    {
      "constant": true,
      "inputs": [],
      "name": "currentCheckpointId",
      "outputs": [
        {
          "name": "",
          "type": "uint256"
        }
      ],
      "payable": false,
      "stateMutability": "view",
      "type": "function"
    },
    {
      "constant": true,
      "inputs": [],
      "name": "granularity",
      "outputs": [
        {
          "name": "",
          "type": "uint256"
        }
      ],
      "payable": false,
      "stateMutability": "view",
      "type": "function"
    },
    {
      "constant": true,
      "inputs": [],
      "name": "MAX_MODULES",
      "outputs": [
        {
          "name": "",
          "type": "uint8"
        }
      ],
      "payable": false,
      "stateMutability": "view",
      "type": "function"
    },
    {
      "constant": true,
      "inputs": [],
      "name": "freeze",
      "outputs": [
        {
          "name": "",
          "type": "bool"
        }
      ],
      "payable": false,
      "stateMutability": "view",
      "type": "function"
    },
    {
      "constant": true,
      "inputs": [],
      "name": "STO_KEY",
      "outputs": [
        {
          "name": "",
          "type": "uint8"
        }
      ],
      "payable": false,
      "stateMutability": "view",
      "type": "function"
    },
    {
      "constant": false,
      "inputs": [
        {
          "name": "_spender",
          "type": "address"
        },
        {
          "name": "_subtractedValue",
          "type": "uint256"
        }
      ],
      "name": "decreaseApproval",
      "outputs": [
        {
          "name": "",
          "type": "bool"
        }
      ],
      "payable": false,
      "stateMutability": "nonpayable",
      "type": "function"
    },
    {
      "constant": true,
      "inputs": [],
      "name": "polyToken",
      "outputs": [
        {
          "name": "",
          "type": "address"
        }
      ],
      "payable": false,
      "stateMutability": "view",
      "type": "function"
    },
    {
      "constant": true,
      "inputs": [
        {
          "name": "_owner",
          "type": "address"
        }
      ],
      "name": "balanceOf",
      "outputs": [
        {
          "name": "",
          "type": "uint256"
        }
      ],
      "payable": false,
      "stateMutability": "view",
      "type": "function"
    },
    {
      "constant": false,
      "inputs": [],
      "name": "renounceOwnership",
      "outputs": [],
      "payable": false,
      "stateMutability": "nonpayable",
      "type": "function"
    },
    {
      "constant": true,
      "inputs": [
        {
          "name": "",
          "type": "uint8"
        },
        {
          "name": "",
          "type": "uint256"
        }
      ],
      "name": "modules",
      "outputs": [
        {
          "name": "name",
          "type": "bytes32"
        },
        {
          "name": "moduleAddress",
          "type": "address"
        }
      ],
      "payable": false,
      "stateMutability": "view",
      "type": "function"
    },
    {
      "constant": true,
      "inputs": [],
      "name": "polymathRegistry",
      "outputs": [
        {
          "name": "",
          "type": "address"
        }
      ],
      "payable": false,
      "stateMutability": "view",
      "type": "function"
    },
    {
      "constant": true,
      "inputs": [
        {
          "name": "",
          "type": "uint256"
        }
      ],
      "name": "checkpointTotalSupply",
      "outputs": [
        {
          "name": "checkpointId",
          "type": "uint256"
        },
        {
          "name": "value",
          "type": "uint256"
        }
      ],
      "payable": false,
      "stateMutability": "view",
      "type": "function"
    },
    {
      "constant": true,
      "inputs": [],
      "name": "owner",
      "outputs": [
        {
          "name": "",
          "type": "address"
        }
      ],
      "payable": false,
      "stateMutability": "view",
      "type": "function"
    },
    {
      "constant": true,
      "inputs": [],
      "name": "TRANSFERMANAGER_KEY",
      "outputs": [
        {
          "name": "",
          "type": "uint8"
        }
      ],
      "payable": false,
      "stateMutability": "view",
      "type": "function"
    },
    {
      "constant": true,
      "inputs": [],
      "name": "symbol",
      "outputs": [
        {
          "name": "",
          "type": "string"
        }
      ],
      "payable": false,
      "stateMutability": "view",
      "type": "function"
    },
    {
      "constant": true,
      "inputs": [],
      "name": "finishedIssuerMinting",
      "outputs": [
        {
          "name": "",
          "type": "bool"
        }
      ],
      "payable": false,
      "stateMutability": "view",
      "type": "function"
    },
    {
      "constant": true,
      "inputs": [],
      "name": "PERMISSIONMANAGER_KEY",
      "outputs": [
        {
          "name": "",
          "type": "uint8"
        }
      ],
      "payable": false,
      "stateMutability": "view",
      "type": "function"
    },
    {
      "constant": true,
      "inputs": [],
      "name": "moduleRegistry",
      "outputs": [
        {
          "name": "",
          "type": "address"
        }
      ],
      "payable": false,
      "stateMutability": "view",
      "type": "function"
    },
    {
      "constant": true,
      "inputs": [],
      "name": "CHECKPOINT_KEY",
      "outputs": [
        {
          "name": "",
          "type": "uint8"
        }
      ],
      "payable": false,
      "stateMutability": "view",
      "type": "function"
    },
    {
      "constant": true,
      "inputs": [],
      "name": "securityTokenRegistry",
      "outputs": [
        {
          "name": "",
          "type": "address"
        }
      ],
      "payable": false,
      "stateMutability": "view",
      "type": "function"
    },
    {
      "constant": true,
      "inputs": [],
      "name": "tokenDetails",
      "outputs": [
        {
          "name": "",
          "type": "string"
        }
      ],
      "payable": false,
      "stateMutability": "view",
      "type": "function"
    },
    {
      "constant": false,
      "inputs": [
        {
          "name": "_spender",
          "type": "address"
        },
        {
          "name": "_addedValue",
          "type": "uint256"
        }
      ],
      "name": "increaseApproval",
      "outputs": [
        {
          "name": "",
          "type": "bool"
        }
      ],
      "payable": false,
      "stateMutability": "nonpayable",
      "type": "function"
    },
    {
      "constant": true,
      "inputs": [],
      "name": "investorCount",
      "outputs": [
        {
          "name": "",
          "type": "uint256"
        }
      ],
      "payable": false,
      "stateMutability": "view",
      "type": "function"
    },
    {
      "constant": true,
      "inputs": [
        {
          "name": "_owner",
          "type": "address"
        },
        {
          "name": "_spender",
          "type": "address"
        }
      ],
      "name": "allowance",
      "outputs": [
        {
          "name": "",
          "type": "uint256"
        }
      ],
      "payable": false,
      "stateMutability": "view",
      "type": "function"
    },
    {
      "constant": false,
      "inputs": [
        {
          "name": "_newOwner",
          "type": "address"
        }
      ],
      "name": "transferOwnership",
      "outputs": [],
      "payable": false,
      "stateMutability": "nonpayable",
      "type": "function"
    },
    {
      "constant": false,
      "inputs": [],
      "name": "updateFromRegistry",
      "outputs": [],
      "payable": false,
      "stateMutability": "nonpayable",
      "type": "function"
    },
    {
      "constant": true,
      "inputs": [
        {
          "name": "",
          "type": "address"
        },
        {
          "name": "",
          "type": "uint256"
        }
      ],
      "name": "checkpointBalances",
      "outputs": [
        {
          "name": "checkpointId",
          "type": "uint256"
        },
        {
          "name": "value",
          "type": "uint256"
        }
      ],
      "payable": false,
      "stateMutability": "view",
      "type": "function"
    },
    {
      "inputs": [
        {
          "name": "_name",
          "type": "string"
        },
        {
          "name": "_symbol",
          "type": "string"
        },
        {
          "name": "_decimals",
          "type": "uint8"
        },
        {
          "name": "_granularity",
          "type": "uint256"
        },
        {
          "name": "_tokenDetails",
          "type": "string"
        },
        {
          "name": "_polymathRegistry",
          "type": "address"
        }
      ],
      "payable": false,
      "stateMutability": "nonpayable",
      "type": "constructor"
    },
    {
      "anonymous": false,
      "inputs": [
        {
          "indexed": true,
          "name": "_type",
          "type": "uint8"
        },
        {
          "indexed": false,
          "name": "_name",
          "type": "bytes32"
        },
        {
          "indexed": false,
          "name": "_moduleFactory",
          "type": "address"
        },
        {
          "indexed": false,
          "name": "_module",
          "type": "address"
        },
        {
          "indexed": false,
          "name": "_moduleCost",
          "type": "uint256"
        },
        {
          "indexed": false,
          "name": "_budget",
          "type": "uint256"
        },
        {
          "indexed": false,
          "name": "_timestamp",
          "type": "uint256"
        }
      ],
      "name": "LogModuleAdded",
      "type": "event"
    },
    {
      "anonymous": false,
      "inputs": [
        {
          "indexed": false,
          "name": "_oldDetails",
          "type": "string"
        },
        {
          "indexed": false,
          "name": "_newDetails",
          "type": "string"
        }
      ],
      "name": "LogUpdateTokenDetails",
      "type": "event"
    },
    {
      "anonymous": false,
      "inputs": [
        {
          "indexed": false,
          "name": "_oldGranularity",
          "type": "uint256"
        },
        {
          "indexed": false,
          "name": "_newGranularity",
          "type": "uint256"
        }
      ],
      "name": "LogGranularityChanged",
      "type": "event"
    },
    {
      "anonymous": false,
      "inputs": [
        {
          "indexed": true,
          "name": "_type",
          "type": "uint8"
        },
        {
          "indexed": false,
          "name": "_module",
          "type": "address"
        },
        {
          "indexed": false,
          "name": "_timestamp",
          "type": "uint256"
        }
      ],
      "name": "LogModuleRemoved",
      "type": "event"
    },
    {
      "anonymous": false,
      "inputs": [
        {
          "indexed": true,
          "name": "_moduleType",
          "type": "uint8"
        },
        {
          "indexed": false,
          "name": "_module",
          "type": "address"
        },
        {
          "indexed": false,
          "name": "_budget",
          "type": "uint256"
        }
      ],
      "name": "LogModuleBudgetChanged",
      "type": "event"
    },
    {
      "anonymous": false,
      "inputs": [
        {
          "indexed": false,
          "name": "_freeze",
          "type": "bool"
        },
        {
          "indexed": false,
          "name": "_timestamp",
          "type": "uint256"
        }
      ],
      "name": "LogFreezeTransfers",
      "type": "event"
    },
    {
      "anonymous": false,
      "inputs": [
        {
          "indexed": true,
          "name": "_checkpointId",
          "type": "uint256"
        },
        {
          "indexed": false,
          "name": "_timestamp",
          "type": "uint256"
        }
      ],
      "name": "LogCheckpointCreated",
      "type": "event"
    },
    {
      "anonymous": false,
      "inputs": [
        {
          "indexed": false,
          "name": "_timestamp",
          "type": "uint256"
        }
      ],
      "name": "LogFinishMintingIssuer",
      "type": "event"
    },
    {
      "anonymous": false,
      "inputs": [
        {
          "indexed": false,
          "name": "_timestamp",
          "type": "uint256"
        }
      ],
      "name": "LogFinishMintingSTO",
      "type": "event"
    },
    {
      "anonymous": false,
      "inputs": [
        {
          "indexed": true,
          "name": "_oldAddress",
          "type": "address"
        },
        {
          "indexed": true,
          "name": "_newAddress",
          "type": "address"
        }
      ],
      "name": "LogChangeSTRAddress",
      "type": "event"
    },
    {
      "anonymous": false,
      "inputs": [
        {
          "indexed": true,
          "name": "previousOwner",
          "type": "address"
        }
      ],
      "name": "OwnershipRenounced",
      "type": "event"
    },
    {
      "anonymous": false,
      "inputs": [
        {
          "indexed": true,
          "name": "previousOwner",
          "type": "address"
        },
        {
          "indexed": true,
          "name": "newOwner",
          "type": "address"
        }
      ],
      "name": "OwnershipTransferred",
      "type": "event"
    },
    {
      "anonymous": false,
      "inputs": [
        {
          "indexed": true,
          "name": "to",
          "type": "address"
        },
        {
          "indexed": false,
          "name": "amount",
          "type": "uint256"
        }
      ],
      "name": "Minted",
      "type": "event"
    },
    {
      "anonymous": false,
      "inputs": [
        {
          "indexed": true,
          "name": "_burner",
          "type": "address"
        },
        {
          "indexed": false,
          "name": "_value",
          "type": "uint256"
        }
      ],
      "name": "Burnt",
      "type": "event"
    },
    {
      "anonymous": false,
      "inputs": [
        {
          "indexed": true,
          "name": "owner",
          "type": "address"
        },
        {
          "indexed": true,
          "name": "spender",
          "type": "address"
        },
        {
          "indexed": false,
          "name": "value",
          "type": "uint256"
        }
      ],
      "name": "Approval",
      "type": "event"
    },
    {
      "anonymous": false,
      "inputs": [
        {
          "indexed": true,
          "name": "from",
          "type": "address"
        },
        {
          "indexed": true,
          "name": "to",
          "type": "address"
        },
        {
          "indexed": false,
          "name": "value",
          "type": "uint256"
        }
      ],
      "name": "Transfer",
      "type": "event"
    },
    {
      "constant": false,
      "inputs": [
        {
          "name": "_moduleFactory",
          "type": "address"
        },
        {
          "name": "_data",
          "type": "bytes"
        },
        {
          "name": "_maxCost",
          "type": "uint256"
        },
        {
          "name": "_budget",
          "type": "uint256"
        }
      ],
      "name": "addModule",
      "outputs": [],
      "payable": false,
      "stateMutability": "nonpayable",
      "type": "function"
    },
    {
      "constant": false,
      "inputs": [
        {
          "name": "_moduleType",
          "type": "uint8"
        },
        {
          "name": "_moduleIndex",
          "type": "uint8"
        }
      ],
      "name": "removeModule",
      "outputs": [],
      "payable": false,
      "stateMutability": "nonpayable",
      "type": "function"
    },
    {
      "constant": true,
      "inputs": [
        {
          "name": "_moduleType",
          "type": "uint8"
        },
        {
          "name": "_moduleIndex",
          "type": "uint256"
        }
      ],
      "name": "getModule",
      "outputs": [
        {
          "name": "",
          "type": "bytes32"
        },
        {
          "name": "",
          "type": "address"
        }
      ],
      "payable": false,
      "stateMutability": "view",
      "type": "function"
    },
    {
      "constant": true,
      "inputs": [
        {
          "name": "_moduleType",
          "type": "uint8"
        },
        {
          "name": "_name",
          "type": "bytes32"
        }
      ],
      "name": "getModuleByName",
      "outputs": [
        {
          "name": "",
          "type": "bytes32"
        },
        {
          "name": "",
          "type": "address"
        }
      ],
      "payable": false,
      "stateMutability": "view",
      "type": "function"
    },
    {
      "constant": false,
      "inputs": [
        {
          "name": "_amount",
          "type": "uint256"
        }
      ],
      "name": "withdrawPoly",
      "outputs": [],
      "payable": false,
      "stateMutability": "nonpayable",
      "type": "function"
    },
    {
      "constant": false,
      "inputs": [
        {
          "name": "_moduleType",
          "type": "uint8"
        },
        {
          "name": "_moduleIndex",
          "type": "uint8"
        },
        {
          "name": "_budget",
          "type": "uint256"
        }
      ],
      "name": "changeModuleBudget",
      "outputs": [],
      "payable": false,
      "stateMutability": "nonpayable",
      "type": "function"
    },
    {
      "constant": false,
      "inputs": [
        {
          "name": "_newTokenDetails",
          "type": "string"
        }
      ],
      "name": "updateTokenDetails",
      "outputs": [],
      "payable": false,
      "stateMutability": "nonpayable",
      "type": "function"
    },
    {
      "constant": false,
      "inputs": [
        {
          "name": "_granularity",
          "type": "uint256"
        }
      ],
      "name": "changeGranularity",
      "outputs": [],
      "payable": false,
      "stateMutability": "nonpayable",
      "type": "function"
    },
    {
      "constant": false,
      "inputs": [
        {
          "name": "_start",
          "type": "uint256"
        },
        {
          "name": "_iters",
          "type": "uint256"
        }
      ],
      "name": "pruneInvestors",
      "outputs": [],
      "payable": false,
      "stateMutability": "nonpayable",
      "type": "function"
    },
    {
      "constant": true,
      "inputs": [],
      "name": "getInvestorsLength",
      "outputs": [
        {
          "name": "",
          "type": "uint256"
        }
      ],
      "payable": false,
      "stateMutability": "view",
      "type": "function"
    },
    {
      "constant": false,
      "inputs": [],
      "name": "freezeTransfers",
      "outputs": [],
      "payable": false,
      "stateMutability": "nonpayable",
      "type": "function"
    },
    {
      "constant": false,
      "inputs": [],
      "name": "unfreezeTransfers",
      "outputs": [],
      "payable": false,
      "stateMutability": "nonpayable",
      "type": "function"
    },
    {
      "constant": false,
      "inputs": [
        {
          "name": "_to",
          "type": "address"
        },
        {
          "name": "_value",
          "type": "uint256"
        }
      ],
      "name": "transfer",
      "outputs": [
        {
          "name": "success",
          "type": "bool"
        }
      ],
      "payable": false,
      "stateMutability": "nonpayable",
      "type": "function"
    },
    {
      "constant": false,
      "inputs": [
        {
          "name": "_from",
          "type": "address"
        },
        {
          "name": "_to",
          "type": "address"
        },
        {
          "name": "_value",
          "type": "uint256"
        }
      ],
      "name": "transferFrom",
      "outputs": [
        {
          "name": "success",
          "type": "bool"
        }
      ],
      "payable": false,
      "stateMutability": "nonpayable",
      "type": "function"
    },
    {
      "constant": false,
      "inputs": [
        {
          "name": "_from",
          "type": "address"
        },
        {
          "name": "_to",
          "type": "address"
        },
        {
          "name": "_amount",
          "type": "uint256"
        }
      ],
      "name": "verifyTransfer",
      "outputs": [
        {
          "name": "",
          "type": "bool"
        }
      ],
      "payable": false,
      "stateMutability": "nonpayable",
      "type": "function"
    },
    {
      "constant": false,
      "inputs": [],
      "name": "finishMintingIssuer",
      "outputs": [],
      "payable": false,
      "stateMutability": "nonpayable",
      "type": "function"
    },
    {
      "constant": false,
      "inputs": [],
      "name": "finishMintingSTO",
      "outputs": [],
      "payable": false,
      "stateMutability": "nonpayable",
      "type": "function"
    },
    {
      "constant": false,
      "inputs": [
        {
          "name": "_investor",
          "type": "address"
        },
        {
          "name": "_amount",
          "type": "uint256"
        }
      ],
      "name": "mint",
      "outputs": [
        {
          "name": "success",
          "type": "bool"
        }
      ],
      "payable": false,
      "stateMutability": "nonpayable",
      "type": "function"
    },
    {
      "constant": false,
      "inputs": [
        {
          "name": "_investors",
          "type": "address[]"
        },
        {
          "name": "_amounts",
          "type": "uint256[]"
        }
      ],
      "name": "mintMulti",
      "outputs": [
        {
          "name": "success",
          "type": "bool"
        }
      ],
      "payable": false,
      "stateMutability": "nonpayable",
      "type": "function"
    },
    {
      "constant": true,
      "inputs": [
        {
          "name": "_delegate",
          "type": "address"
        },
        {
          "name": "_module",
          "type": "address"
        },
        {
          "name": "_perm",
          "type": "bytes32"
        }
      ],
      "name": "checkPermission",
      "outputs": [
        {
          "name": "",
          "type": "bool"
        }
      ],
      "payable": false,
      "stateMutability": "view",
      "type": "function"
    },
    {
      "constant": false,
      "inputs": [
        {
          "name": "_tokenBurner",
          "type": "address"
        }
      ],
      "name": "setTokenBurner",
      "outputs": [],
      "payable": false,
      "stateMutability": "nonpayable",
      "type": "function"
    },
    {
      "constant": false,
      "inputs": [
        {
          "name": "_value",
          "type": "uint256"
        }
      ],
      "name": "burn",
      "outputs": [],
      "payable": false,
      "stateMutability": "nonpayable",
      "type": "function"
    },
    {
      "constant": false,
      "inputs": [],
      "name": "createCheckpoint",
      "outputs": [
        {
          "name": "",
          "type": "uint256"
        }
      ],
      "payable": false,
      "stateMutability": "nonpayable",
      "type": "function"
    },
    {
      "constant": true,
      "inputs": [
        {
          "name": "_checkpointId",
          "type": "uint256"
        }
      ],
      "name": "totalSupplyAt",
      "outputs": [
        {
          "name": "",
          "type": "uint256"
        }
      ],
      "payable": false,
      "stateMutability": "view",
      "type": "function"
    },
    {
      "constant": true,
      "inputs": [
        {
          "name": "_investor",
          "type": "address"
        },
        {
          "name": "_checkpointId",
          "type": "uint256"
        }
      ],
      "name": "balanceOfAt",
      "outputs": [
        {
          "name": "",
          "type": "uint256"
        }
      ],
      "payable": false,
      "stateMutability": "view",
      "type": "function"
    }
  ],
  "bytecode": "0x6080604052600c805460ff191690556011805460a060020a60ff02191690556014805461ffff191690553480156200003657600080fd5b5060405162004ee538038062004ee58339810160409081528151602080840151928401516060850151608086015160a08701519487018051909796870196939592949190930192829188918891889162000097916003919086019062000635565b508151620000ad90600490602085019062000635565b506005805460ff90921660ff19909216919091179055505060078054600160a060020a03191633179055600160a060020a0381161515620000ed57600080fd5b600c8054600160a060020a039092166101000261010060a860020a031990921691909117905562000126640100000000620002a6810204565b81516200013b90600690602085019062000635565b5050506008555050604080517f7472616e7366657228616464726573732c75696e743235362900000000000000815281519081900360190181207fffffffff00000000000000000000000000000000000000000000000000000000908116600090815260156020818152858320805460ff1990811660019081179092557f7472616e7366657246726f6d28616464726573732c616464726573732c75696e87527f74323536290000000000000000000000000000000000000000000000000000008388015287519687900360250187208616855283835287852080548216831790557f6d696e7428616464726573732c75696e743235362900000000000000000000008752875196879003840187208616855283835287852080548216831790557f6275726e2875696e7432353629000000000000000000000000000000000000008752875196879003600d01909620909416835252929092208054909116909117905550620006da565b600754600160a060020a03163314620002be57600080fd5b600c54604080517fbf40fac1000000000000000000000000000000000000000000000000000000008152602060048201819052600e60248301527f4d6f64756c65526567697374727900000000000000000000000000000000000060448301529151610100909304600160a060020a03169263bf40fac1926064808401939192918290030181600087803b1580156200035657600080fd5b505af11580156200036b573d6000803e3d6000fd5b505050506040513d60208110156200038257600080fd5b5051600d8054600160a060020a031916600160a060020a03928316179055600c54604080517fbf40fac1000000000000000000000000000000000000000000000000000000008152602060048201819052601560248301527f5365637572697479546f6b656e52656769737472790000000000000000000000604483015291516101009093049093169263bf40fac192606480830193928290030181600087803b1580156200043057600080fd5b505af115801562000445573d6000803e3d6000fd5b505050506040513d60208110156200045c57600080fd5b5051600e8054600160a060020a031916600160a060020a03928316178155600c54604080517fbf40fac100000000000000000000000000000000000000000000000000000000815260206004820181905260248201949094527f5469636b65725265676973747279000000000000000000000000000000000000604482015290516101009092049093169263bf40fac19260648083019391928290030181600087803b1580156200050c57600080fd5b505af115801562000521573d6000803e3d6000fd5b505050506040513d60208110156200053857600080fd5b5051600f8054600160a060020a031916600160a060020a03928316179055600c54604080517fbf40fac1000000000000000000000000000000000000000000000000000000008152602060048201819052600960248301527f506f6c79546f6b656e0000000000000000000000000000000000000000000000604483015291516101009093049093169263bf40fac192606480830193928290030181600087803b158015620005e657600080fd5b505af1158015620005fb573d6000803e3d6000fd5b505050506040513d60208110156200061257600080fd5b505160108054600160a060020a031916600160a060020a03909216919091179055565b828054600181600116156101000203166002900490600052602060002090601f016020900481019282601f106200067857805160ff1916838001178555620006a8565b82800160010185558215620006a8579182015b82811115620006a85782518255916020019190600101906200068b565b50620006b6929150620006ba565b5090565b620006d791905b80821115620006b65760008155600101620006c1565b90565b6147fb80620006ea6000396000f3006080604052600436106102c65763ffffffff60e060020a6000350416630150246081146102cb57806306fdde03146102e2578063095ea7b31461036c5780630c72a835146103a457806318160ddd146103c55780631b2ae899146103ec5780631bc125f31461040d578063210a8d0e14610422578063219371921461043a57806323b872dd1461044f5780632996f972146104795780632a858126146104aa578063313ce567146104bf57806331c420d4146104ea5780633876e6d3146104ff5780633feb5f2b1461051457806340c10f191461052c57806342966c681461055057806346b65ffd1461056857806346e4959d146105a75780634ee2cd7e146106355780635488cc8014610659578063556f0dc71461066e5780635f1e8c1b146106835780635fcc62771461069857806362a5af3b146106bc5780636604ca6b146106d157806366188463146106e65780636faa22a51461070a57806370a082311461071f578063715018a614610740578063729d20e21461075557806373826a931461077357806377282b70146107cc5780637e8937d9146107e15780638658b8b9146108125780638da5cb5b1461083c57806391415ce91461085157806395d89b4114610866578063981b24d01461087b5780639a4b1d5c146108935780639c3fe721146108bd5780639f45b45c146108d2578063a3f7e26d146108f0578063a8ef4b6614610905578063a9059cbb1461091a578063b0af768b1461093e578063b95459e41461095f578063bcddd64e14610974578063c5bac42114610989578063ce4dbdff146109a4578063d6abe110146109b9578063d73dd623146109ce578063d7e64c00146109f2578063dd62ed3e14610a07578063e3cc65e214610a2e578063f2fde38b14610a43578063f433262f14610a64578063f5efbd2d14610a79578063f8a4cc3314610aac578063fbaa401914610ac4578063ff0b9c9014610ae8575b600080fd5b3480156102d757600080fd5b506102e0610afd565b005b3480156102ee57600080fd5b506102f7610b97565b6040805160208082528351818301528351919283929083019185019080838360005b83811015610331578181015183820152602001610319565b50505050905090810190601f16801561035e5780820380516001836020036101000a031916815260200191505b509250505060405180910390f35b34801561037857600080fd5b50610390600160a060020a0360043516602435610c25565b604080519115158252519081900360200190f35b3480156103b057600080fd5b50610390600160a060020a0360043516610c8b565b3480156103d157600080fd5b506103da610ca0565b60408051918252519081900360200190f35b3480156103f857600080fd5b506102e060ff60043581169060243516610ca7565b34801561041957600080fd5b506102e0610f47565b34801561042e57600080fd5b506102e0600435610fa2565b34801561044657600080fd5b50610390611052565b34801561045b57600080fd5b50610390600160a060020a0360043581169060243516604435611060565b34801561048557600080fd5b5061048e6110ee565b60408051600160a060020a039092168252519081900360200190f35b3480156104b657600080fd5b5061048e6110fd565b3480156104cb57600080fd5b506104d461110c565b6040805160ff9092168252519081900360200190f35b3480156104f657600080fd5b506102e0611115565b34801561050b57600080fd5b506103da6111ab565b34801561052057600080fd5b5061048e6004356111cf565b34801561053857600080fd5b50610390600160a060020a03600435166024356111f7565b34801561055c57600080fd5b506102e0600435611736565b34801561057457600080fd5b5061058660ff60043516602435611afc565b60408051928352600160a060020a0390911660208301528051918290030190f35b3480156105b357600080fd5b506040805160206004803580820135838102808601850190965280855261039095369593946024949385019291829185019084908082843750506040805187358901803560208181028481018201909552818452989b9a998901989297509082019550935083925085019084908082843750949750611b9a9650505050505050565b34801561064157600080fd5b506103da600160a060020a0360043516602435611e9d565b34801561066557600080fd5b506103da611ecf565b34801561067a57600080fd5b506103da611ed5565b34801561068f57600080fd5b506104d4611edb565b3480156106a457600080fd5b506102e060ff60043581169060243516604435611ee0565b3480156106c857600080fd5b506103906123d2565b3480156106dd57600080fd5b506104d46123e2565b3480156106f257600080fd5b50610390600160a060020a03600435166024356123e7565b34801561071657600080fd5b5061048e6124d7565b34801561072b57600080fd5b506103da600160a060020a03600435166124e6565b34801561074c57600080fd5b506102e0612501565b34801561076157600080fd5b5061058660ff60043516602435612562565b34801561077f57600080fd5b506040805160206004803580820135601f81018490048402850184019095528484526102e09436949293602493928401919081908401838280828437509497506125a69650505050505050565b3480156107d857600080fd5b5061048e6126e9565b3480156107ed57600080fd5b506107f96004356126fd565b6040805192835260208301919091528051918290030190f35b34801561081e57600080fd5b50610390600160a060020a0360043581169060243516604435612729565b34801561084857600080fd5b5061048e6128b0565b34801561085d57600080fd5b506104d46128bf565b34801561087257600080fd5b506102f76128c4565b34801561088757600080fd5b506103da60043561291f565b34801561089f57600080fd5b50610390600160a060020a0360043581169060243516604435612935565b3480156108c957600080fd5b50610390612c81565b3480156108de57600080fd5b5061058660ff60043516602435612c8a565b3480156108fc57600080fd5b506102e0612d8a565b34801561091157600080fd5b506104d4612de3565b34801561092657600080fd5b50610390600160a060020a0360043516602435612de8565b34801561094a57600080fd5b506102e0600160a060020a0360043516612e74565b34801561096b57600080fd5b5061048e612ead565b34801561098057600080fd5b506104d4612ebc565b34801561099557600080fd5b506102e0600435602435612ec1565b3480156109b057600080fd5b5061048e613006565b3480156109c557600080fd5b506102f7613015565b3480156109da57600080fd5b50610390600160a060020a0360043516602435613070565b3480156109fe57600080fd5b506103da613109565b348015610a1357600080fd5b506103da600160a060020a036004358116906024351661310f565b348015610a3a57600080fd5b506103da61313a565b348015610a4f57600080fd5b506102e0600160a060020a0360043516613140565b348015610a7057600080fd5b506102e0613163565b348015610a8557600080fd5b506102e060048035600160a060020a0316906024803590810191013560443560643561348d565b348015610ab857600080fd5b506102e0600435613510565b348015610ad057600080fd5b506107f9600160a060020a036004351660243561361b565b348015610af457600080fd5b506103da613656565b600754600160a060020a03163314610b1457600080fd5b60115460a060020a900460ff1615610b2b57600080fd5b6011805474ff0000000000000000000000000000000000000000191660a060020a90811791829055604080519190920460ff161515815242602082015281517fd057913b88ba41d6281d1ee94831a8a6166afd6b478ea9babb2c02b413f172b3929181900390910190a1565b6003805460408051602060026001851615610100026000190190941693909304601f81018490048402820184019092528181529291830182828015610c1d5780601f10610bf257610100808354040283529160200191610c1d565b820191906000526020600020905b815481529060010190602001808311610c0057829003601f168201915b505050505081565b336000818152600260209081526040808320600160a060020a038716808552908352818420869055815186815291519394909390927f8c5be1e5ebec7d5bd14f71427d1e84f3dd0314c0f7b2291e5b200ac8c7c3b925928290030190a350600192915050565b60176020526000908152604090205460ff1681565b6001545b90565b600754600160a060020a03163314610cbe57600080fd5b60ff80831660009081526016602052604090205490821610610d50576040805160e560020a62461bcd02815260206004820152603960248201527f4d6f64756c6520696e64657820646f65736e277420657869737420617320706560448201527f72207468652063686f6f73656e206d6f64756c65207479706500000000000000606482015290519081900360840190fd5b60ff8083166000908152601660205260408120805491929091908416908110610d7557fe5b6000918252602090912060016002909202010154600160a060020a03161415610e0e576040805160e560020a62461bcd02815260206004820152602860248201527f4d6f64756c6520636f6e747261637420616464726573732073686f756c64206e60448201527f6f74206265203078000000000000000000000000000000000000000000000000606482015290519081900360840190fd5b60ff8083166000818152601660205260409020805491927fe69a96f148bcf365cf82241853ecbeb32c5b01500d98bf3d93ee870cd951162c92908516908110610e5357fe5b60009182526020918290206001600290920201015460408051600160a060020a039092168252429282019290925281519081900390910190a260ff8216600090815260166020526040902080546000198101908110610eae57fe5b9060005260206000209060020201601660008460ff1660ff1681526020019081526020016000208260ff16815481101515610ee557fe5b600091825260208083208454600290930201918255600193840154939091018054600160a060020a031916600160a060020a039094169390931790925560ff8416815260169091526040902080546000190190610f42908261467b565b505050565b600754600160a060020a03163314610f5e57600080fd5b6014805461ff0019166101001790556040805142815290517fc3f76bdabdaf2a3983623e5efddd4deb49a4acdca62642d61969164d2a4441259181900360200190a1565b600754600160a060020a03163314610fb957600080fd5b801515611010576040805160e560020a62461bcd02815260206004820152601860248201527f4772616e756c61726974792063616e206e6f7420626520300000000000000000604482015290519081900360640190fd5b600854604080519182526020820183905280517fd13c95c3e8cd875fc20a3da70637bcd9e053e0414035532577769470649507dc9281900390910190a1600855565b601454610100900460ff1681565b600061106d8484846138d3565b611078848484612935565b15156110bc576040805160e560020a62461bcd0281526020600482015260156024820152600080516020614790833981519152604482015290519081900360640190fd5b6110c5846139fd565b6110ce836139fd565b6110d9848484613a27565b15156110e457600080fd5b5060019392505050565b601154600160a060020a031681565b600f54600160a060020a031681565b60055460ff1681565b600754600160a060020a0316331461112c57600080fd5b60115460a060020a900460ff16151561114457600080fd5b6011805474ff00000000000000000000000000000000000000001916908190556040805160a060020a90920460ff161515825242602083015280517fd057913b88ba41d6281d1ee94831a8a6166afd6b478ea9babb2c02b413f172b39281900390910190a1565b7f302e302e3100000000000000000000000000000000000000000000000000000081565b600b8054829081106111dd57fe5b600091825260209091200154600160a060020a0316905081565b60006003600182805b60ff808516600090815260166020526040902054908216101561126f578180611265575060ff808516600090815260166020526040902080543392841690811061124657fe5b6000918252602090912060016002909202010154600160a060020a0316145b9150600101611200565b82801561127a575081155b1561139d5760ff8416600314156113365760ff84166000908152601660205260409020541580156112b55750600754600160a060020a031633145b1515611331576040805160e560020a62461bcd02815260206004820152602d60248201527f53656e646572206973206e6f74206f776e6572206f722053544f206d6f64756c60448201527f6520697320617474616368656400000000000000000000000000000000000000606482015290519081900360840190fd5b611398565b600754600160a060020a03163314611398576040805160e560020a62461bcd02815260206004820152601360248201527f53656e646572206973206e6f74206f776e657200000000000000000000000000604482015290519081900360640190fd5b61141a565b81151561141a576040805160e560020a62461bcd02815260206004820152602160248201527f53656e646572206973206e6f7420636f7272656374206d6f64756c652074797060448201527f6500000000000000000000000000000000000000000000000000000000000000606482015290519081900360840190fd5b856008548181151561142857fe5b06156114a4576040805160e560020a62461bcd02815260206004820152603360248201527f556e61626c6520746f206d6f6469667920746f6b656e2062616c616e6365732060448201527f61742074686973206772616e756c617269747900000000000000000000000000606482015290519081900360840190fd5b600754600160a060020a03163314156115175760145460ff1615611512576040805160e560020a62461bcd02815260206004820152601e60248201527f4d696e74696e672069732066696e697368656420666f72204973737565720000604482015290519081900360640190fd5b611577565b601454610100900460ff1615611577576040805160e560020a62461bcd02815260206004820152601c60248201527f4d696e74696e672069732066696e697368656420666f722053544f7300000000604482015290519081900360640190fd5b600160a060020a03881615156115fd576040805160e560020a62461bcd02815260206004820152602160248201527f496e766573746f7220616464726573732073686f756c64206e6f74206265203060448201527f7800000000000000000000000000000000000000000000000000000000000000606482015290519081900360840190fd5b611609600089896138d3565b61161560008989612935565b1515611659576040805160e560020a62461bcd0281526020600482015260156024820152600080516020614790833981519152604482015290519081900360640190fd5b611662886139fd565b61166a613b8c565b60015461167d908863ffffffff613b9b16565b600155600160a060020a0388166000908152602081905260409020546116a9908863ffffffff613b9b16565b600160a060020a038916600081815260208181526040918290209390935580518a8152905191927f30385c845b448a36257a6a1716e6ad2e1bc2cbe333cde1e69fe849ad6511adfe92918290030190a2604080518881529051600160a060020a038a16916000916000805160206147b08339815191529181900360200190a3506001979650505050505050565b806008548181151561174457fe5b06156117c0576040805160e560020a62461bcd02815260206004820152603360248201527f556e61626c6520746f206d6f6469667920746f6b656e2062616c616e6365732060448201527f61742074686973206772616e756c617269747900000000000000000000000000606482015290519081900360840190fd5b6117cc336000846138d3565b601154600160a060020a03161515611854576040805160e560020a62461bcd02815260206004820152602c60248201527f546f6b656e204275726e657220636f6e7472616374206164647265737320697360448201527f206e6f7420736574207965740000000000000000000000000000000000000000606482015290519081900360840190fd5b61186033600084612935565b15156118a4576040805160e560020a62461bcd0281526020600482015260156024820152600080516020614790833981519152604482015290519081900360640190fd5b33600090815260208190526040902054821115611931576040805160e560020a62461bcd02815260206004820152603960248201527f56616c75652073686f756c64206e6f2062652067726561746572207468616e2060448201527f7468652062616c616e6365206f66206d73672e73656e64657200000000000000606482015290519081900360840190fd5b61193a336139fd565b611942613b8c565b33600090815260208190526040902054611962908363ffffffff613ba816565b336000818152602081815260408083209490945560115484517f9dc29fac0000000000000000000000000000000000000000000000000000000081526004810194909452602484018790529351600160a060020a0390941693639dc29fac93604480820194918390030190829087803b1580156119de57600080fd5b505af11580156119f2573d6000803e3d6000fd5b505050506040513d6020811015611a0857600080fd5b50511515611a86576040805160e560020a62461bcd02815260206004820152602560248201527f546f6b656e206275726e65722070726f63657373206973206e6f742076616c6960448201527f6461746564000000000000000000000000000000000000000000000000000000606482015290519081900360840190fd5b600154611a99908363ffffffff613ba816565b60015560408051838152905133917f919f7e2092ffcc9d09f599be18d8152860b0c054df788a33bc549cdd9d0f15b1919081900360200190a260408051838152905160009133916000805160206147b08339815191529181900360200190a35050565b60ff82166000908152601660205260408120548190811015611b8c5760ff84166000908152601660205260409020805484908110611b3657fe5b6000918252602080832060029092029091015460ff8716835260169091526040909120805485908110611b6557fe5b6000918252602090912060016002909202010154909250600160a060020a03169050611b93565b5060009050805b9250929050565b6000806003600182805b60ff8085166000908152601660205260409020549082161015611c13578180611c09575060ff8085166000908152601660205260409020805433928416908110611bea57fe5b6000918252602090912060016002909202010154600160a060020a0316145b9150600101611ba4565b828015611c1e575081155b15611d415760ff841660031415611cda5760ff8416600090815260166020526040902054158015611c595750600754600160a060020a031633145b1515611cd5576040805160e560020a62461bcd02815260206004820152602d60248201527f53656e646572206973206e6f74206f776e6572206f722053544f206d6f64756c60448201527f6520697320617474616368656400000000000000000000000000000000000000606482015290519081900360840190fd5b611d3c565b600754600160a060020a03163314611d3c576040805160e560020a62461bcd02815260206004820152601360248201527f53656e646572206973206e6f74206f776e657200000000000000000000000000604482015290519081900360640190fd5b611dbe565b811515611dbe576040805160e560020a62461bcd02815260206004820152602160248201527f53656e646572206973206e6f7420636f7272656374206d6f64756c652074797060448201527f6500000000000000000000000000000000000000000000000000000000000000606482015290519081900360840190fd5b8651885114611e3d576040805160e560020a62461bcd02815260206004820152602560248201527f4d69732d6d6174636820696e20746865206c656e677468206f6620746865206160448201527f7272617973000000000000000000000000000000000000000000000000000000606482015290519081900360840190fd5b600094505b8751851015611e8f57611e838886815181101515611e5c57fe5b906020019060200201518887815181101515611e7457fe5b906020019060200201516111f7565b50600190940193611e42565b506001979650505050505050565b600160a060020a0382166000908152601260205260408120611ec89083611ec3866124e6565b613bba565b9392505050565b60095481565b60085481565b601481565b600754600090600160a060020a03163314611efa57600080fd5b60ff84161515611f54576040805160e560020a62461bcd02815260206004820152601a60248201527f4d6f64756c6520747970652063616e6e6f74206265207a65726f000000000000604482015290519081900360640190fd5b60ff80851660009081526016602052604090205490841610611fc0576040805160e560020a62461bcd02815260206004820152601760248201527f496e636f727272656374206d6f64756c6520696e646578000000000000000000604482015290519081900360640190fd5b60105460ff80861660009081526016602052604090208054600160a060020a039093169263dd62ed3e92309291908816908110611ff957fe5b60009182526020808320600160029093020191909101546040805160e060020a63ffffffff8816028152600160a060020a03958616600482015294909116602485015251604480850194929391928390030190829087803b15801561205d57600080fd5b505af1158015612071573d6000803e3d6000fd5b505050506040513d602081101561208757600080fd5b50519050808210156121f45760105460ff80861660009081526016602052604090208054600160a060020a039093169263661884639287169081106120c857fe5b6000918252602090912060016002909202010154600160a060020a03166120f5848663ffffffff613ba816565b6040518363ffffffff1660e060020a0281526004018083600160a060020a0316600160a060020a0316815260200182815260200192505050602060405180830381600087803b15801561214757600080fd5b505af115801561215b573d6000803e3d6000fd5b505050506040513d602081101561217157600080fd5b505115156121ef576040805160e560020a62461bcd02815260206004820152602860248201527f496e73756666696369656e742062616c616e636520746f20646563726561736560448201527f417070726f76616c000000000000000000000000000000000000000000000000606482015290519081900360840190fd5b612350565b60105460ff80861660009081526016602052604090208054600160a060020a039093169263d73dd62392871690811061222957fe5b6000918252602090912060016002909202010154600160a060020a0316612256858563ffffffff613ba816565b6040518363ffffffff1660e060020a0281526004018083600160a060020a0316600160a060020a0316815260200182815260200192505050602060405180830381600087803b1580156122a857600080fd5b505af11580156122bc573d6000803e3d6000fd5b505050506040513d60208110156122d257600080fd5b50511515612350576040805160e560020a62461bcd02815260206004820152602860248201527f496e73756666696369656e742062616c616e636520746f20696e63726561736560448201527f417070726f76616c000000000000000000000000000000000000000000000000606482015290519081900360840190fd5b60ff8085166000818152601660205260409020805491927f56e65530d356ea53a7cecc9a37666884b4fe9f05a65df888abd3898548bc15f49290871690811061239557fe5b60009182526020918290206001600290920201015460408051600160a060020a03909216825291810186905281519081900390910190a250505050565b60115460a060020a900460ff1681565b600381565b336000908152600260209081526040808320600160a060020a03861684529091528120548083111561243c57336000908152600260209081526040808320600160a060020a0388168452909152812055612471565b61244c818463ffffffff613ba816565b336000908152600260209081526040808320600160a060020a03891684529091529020555b336000818152600260209081526040808320600160a060020a0389168085529083529281902054815190815290519293927f8c5be1e5ebec7d5bd14f71427d1e84f3dd0314c0f7b2291e5b200ac8c7c3b925929181900390910190a35060019392505050565b601054600160a060020a031681565b600160a060020a031660009081526020819052604090205490565b600754600160a060020a0316331461251857600080fd5b600754604051600160a060020a03909116907ff8df31144d9c2f0f6b59d69b8b98abd5459d07f2742c4df920b25aae33c6482090600090a260078054600160a060020a0319169055565b60166020528160005260406000208181548110151561257d57fe5b600091825260209091206002909102018054600190910154909250600160a060020a0316905082565b600754600160a060020a031633146125bd57600080fd5b6040805181815260068054600260001961010060018416150201909116049282018390527fcef6c04f6d4bada4c1a1fcbb22cadbe4d4fb609cea3788e920628a6186e587659290918491819060208201906060830190869080156126625780601f1061263757610100808354040283529160200191612662565b820191906000526020600020905b81548152906001019060200180831161264557829003601f168201915b5050838103825284518152845160209182019186019080838360005b8381101561269657818101518382015260200161267e565b50505050905090810190601f1680156126c35780820380516001836020036101000a031916815260200191505b5094505050505060405180910390a180516126e59060069060208401906146a7565b5050565b600c546101009004600160a060020a031681565b601380548290811061270b57fe5b60009182526020909120600290910201805460019091015490915082565b6001600090815260166020527f4c4dc693d7db52f85fe052106f4b4b920e78e8ef37dee82878a60ab8585faf49548190151561276857600091506128a8565b5060005b600160005260166020527f4c4dc693d7db52f85fe052106f4b4b920e78e8ef37dee82878a60ab8585faf495460ff821610156128a857600160005260166020527f4c4dc693d7db52f85fe052106f4b4b920e78e8ef37dee82878a60ab8585faf49805460ff83169081106127dc57fe5b6000918252602080832060016002909302019190910154604080517f8658b8b9000000000000000000000000000000000000000000000000000000008152600160a060020a038a8116600483015289811660248301526044820189905291519190921693638658b8b993606480850194919392918390030190829087803b15801561286657600080fd5b505af115801561287a573d6000803e3d6000fd5b505050506040513d602081101561289057600080fd5b5051156128a057600191506128a8565b60010161276c565b509392505050565b600754600160a060020a031681565b600281565b6004805460408051602060026001851615610100026000190190941693909304601f81018490048402820184019092528181529291830182828015610c1d5780601f10610bf257610100808354040283529160200191610c1d565b600061292f601383611ec3610ca0565b92915050565b6000806000806000806000876008548181151561294e57fe5b06156129ca576040805160e560020a62461bcd02815260206004820152603360248201527f556e61626c6520746f206d6f6469667920746f6b656e2062616c616e6365732060448201527f61742074686973206772616e756c617269747900000000000000000000000000606482015290519081900360840190fd5b60115460a060020a900460ff161515612c6e576000965060156000612a1f6000368080601f01602080910402602001604051908101604052809392919081815260200183838082843750613d65945050505050565b7fffffffff0000000000000000000000000000000000000000000000000000000016815260208101919091526040016000205460ff1615612a5f57600196505b600260005260166020527fcaff291fe014adc6b72a172705750b4cabe8f8667664d2924a166caab2885648541515612a9a5760019750612c73565b600095506000945060009350600092505b600260005260166020527fcaff291fe014adc6b72a172705750b4cabe8f8667664d2924a166caab28856485460ff84161015612c4c57600260005260166020527fcaff291fe014adc6b72a172705750b4cabe8f8667664d2924a166caab2885648805460ff8516908110612b1b57fe5b906000526020600020906002020160010160009054906101000a9004600160a060020a0316600160a060020a0316637915c9e08c8c8c8b6040518563ffffffff1660e060020a0281526004018085600160a060020a0316600160a060020a0316815260200184600160a060020a0316600160a060020a0316815260200183815260200182151515158152602001945050505050602060405180830381600087803b158015612bc857600080fd5b505af1158015612bdc573d6000803e3d6000fd5b505050506040513d6020811015612bf257600080fd5b505191506000826003811115612c0457fe5b1415612c0f57600195505b6002826003811115612c1d57fe5b1415612c2857600194505b6003826003811115612c3657fe5b1415612c4157600193505b600190920191612aab565b83612c645785612c5c5784612c5f565b60005b612c67565b60015b9750612c73565b600097505b505050505050509392505050565b60145460ff1681565b60ff821660009081526016602052604081205481908190811015612d7a575060005b60ff8516600090815260166020526040902054811015612d7a5760ff85166000908152601660205260409020805485919083908110612ce757fe5b60009182526020909120600290910201541415612d725760ff85166000908152601660205260409020805482908110612d1c57fe5b6000918252602080832060029092029091015460ff8816835260169091526040909120805483908110612d4b57fe5b6000918252602090912060016002909202010154909350600160a060020a03169150612d82565b600101612cac565b600092508291505b509250929050565b600754600160a060020a03163314612da157600080fd5b6014805460ff191660011790556040805142815290517f10216e36c4b6dff3d74179d50b938f0f96afc610f073894ca04b4239299165679181900360200190a1565b600181565b6000612df53384846138d3565b612e00338484612935565b1515612e44576040805160e560020a62461bcd0281526020600482015260156024820152600080516020614790833981519152604482015290519081900360640190fd5b612e4d336139fd565b612e56836139fd565b612e608383613de6565b1515612e6b57600080fd5b50600192915050565b600754600160a060020a03163314612e8b57600080fd5b60118054600160a060020a031916600160a060020a0392909216919091179055565b600d54600160a060020a031681565b600481565b600754600090600160a060020a03163314612edb57600080fd5b50815b612ef9612ef1848463ffffffff613b9b16565b600b54613eb5565b811015610f4257600b5481108015612f3a5750612f38600b82815481101515612f1e57fe5b600091825260209091200154600160a060020a03166124e6565b155b15612ffe57600060176000600b84815481101515612f5457fe5b600091825260208083209190910154600160a060020a031683528201929092526040019020805460ff1916911515919091179055600b80546000198101908110612f9a57fe5b600091825260209091200154600b8054600160a060020a039092169183908110612fc057fe5b60009182526020909120018054600160a060020a031916600160a060020a0392909216919091179055600b805490612ffc906000198301614725565b505b600101612ede565b600e54600160a060020a031681565b6006805460408051602060026001851615610100026000190190941693909304601f81018490048402820184019092528181529291830182828015610c1d5780601f10610bf257610100808354040283529160200191610c1d565b336000908152600260209081526040808320600160a060020a03861684529091528120546130a4908363ffffffff613b9b16565b336000818152600260209081526040808320600160a060020a0389168085529083529281902085905580519485525191937f8c5be1e5ebec7d5bd14f71427d1e84f3dd0314c0f7b2291e5b200ac8c7c3b925929081900390910190a350600192915050565b600a5481565b600160a060020a03918216600090815260026020908152604080832093909416825291909152205490565b600b5490565b600754600160a060020a0316331461315757600080fd5b61316081613ecb565b50565b600754600160a060020a0316331461317a57600080fd5b600c546040805160e060020a63bf40fac1028152602060048201819052600e60248301527f4d6f64756c65526567697374727900000000000000000000000000000000000060448301529151610100909304600160a060020a03169263bf40fac1926064808401939192918290030181600087803b1580156131fb57600080fd5b505af115801561320f573d6000803e3d6000fd5b505050506040513d602081101561322557600080fd5b5051600d8054600160a060020a031916600160a060020a03928316179055600c546040805160e060020a63bf40fac1028152602060048201819052601560248301527f5365637572697479546f6b656e52656769737472790000000000000000000000604483015291516101009093049093169263bf40fac192606480830193928290030181600087803b1580156132bc57600080fd5b505af11580156132d0573d6000803e3d6000fd5b505050506040513d60208110156132e657600080fd5b5051600e8054600160a060020a031916600160a060020a03928316178155600c546040805160e060020a63bf40fac102815260206004820181905260248201949094527f5469636b65725265676973747279000000000000000000000000000000000000604482015290516101009092049093169263bf40fac19260648083019391928290030181600087803b15801561337f57600080fd5b505af1158015613393573d6000803e3d6000fd5b505050506040513d60208110156133a957600080fd5b5051600f8054600160a060020a031916600160a060020a03928316179055600c546040805160e060020a63bf40fac1028152602060048201819052600960248301527f506f6c79546f6b656e0000000000000000000000000000000000000000000000604483015291516101009093049093169263bf40fac192606480830193928290030181600087803b15801561344057600080fd5b505af1158015613454573d6000803e3d6000fd5b505050506040513d602081101561346a57600080fd5b505160108054600160a060020a031916600160a060020a03909216919091179055565b600754600160a060020a031633146134a457600080fd5b600c5460ff16156134b457600080fd5b600c805460ff19166001179055604080516020601f86018190048102820181019092528481526134ff9187919087908790819084018382808284378201915050505050508484613f3c565b5050600c805460ff19169055505050565b600754600160a060020a0316331461352757600080fd5b601054600754604080517fa9059cbb000000000000000000000000000000000000000000000000000000008152600160a060020a039283166004820152602481018590529051919092169163a9059cbb9160448083019260209291908290030181600087803b15801561359957600080fd5b505af11580156135ad573d6000803e3d6000fd5b505050506040513d60208110156135c357600080fd5b50511515613160576040805160e560020a62461bcd02815260206004820152601560248201527f496e2d73756666696369656e742062616c616e63650000000000000000000000604482015290519081900360640190fd5b60126020528160005260406000208181548110151561363657fe5b600091825260209091206002909102018054600190910154909250905082565b60006004600182805b60ff80851660009081526016602052604090205490821610156136ce5781806136c4575060ff80851660009081526016602052604090208054339284169081106136a557fe5b6000918252602090912060016002909202010154600160a060020a0316145b915060010161365f565b8280156136d9575081155b156137fc5760ff8416600314156137955760ff84166000908152601660205260409020541580156137145750600754600160a060020a031633145b1515613790576040805160e560020a62461bcd02815260206004820152602d60248201527f53656e646572206973206e6f74206f776e6572206f722053544f206d6f64756c60448201527f6520697320617474616368656400000000000000000000000000000000000000606482015290519081900360840190fd5b6137f7565b600754600160a060020a031633146137f7576040805160e560020a62461bcd02815260206004820152601360248201527f53656e646572206973206e6f74206f776e657200000000000000000000000000604482015290519081900360640190fd5b613879565b811515613879576040805160e560020a62461bcd02815260206004820152602160248201527f53656e646572206973206e6f7420636f7272656374206d6f64756c652074797060448201527f6500000000000000000000000000000000000000000000000000000000000000606482015290519081900360840190fd5b6009546000191161388957600080fd5b60098054600101908190556040805142815290517feb3befa36ea6638fc3379fe62edc59509b81aeca57cfbb0f444b1e72b8ac93fe9181900360200190a260095494505050505090565b8015806138f1575081600160a060020a031683600160a060020a0316145b156138fb57610f42565b613904826124e6565b1580156139195750600160a060020a03821615155b1561393657600a5461393290600163ffffffff613b9b16565b600a555b61393f836124e6565b81141561395e57600a5461395a90600163ffffffff613ba816565b600a555b600160a060020a03821660009081526017602052604090205460ff1615801561398f5750600160a060020a03821615155b15610f4257600b805460018181019092557f0175b7a638427703f0dbe7bb9bbf987a2551717b34e79f33b5b1008d1fa01db9018054600160a060020a038516600160a060020a031990911681179091556000908152601760205260409020805460ff19169091179055505050565b600160a060020a038116600090815260126020526040902061316090613a22836124e6565b6145b7565b6000600160a060020a0383161515613a3e57600080fd5b600160a060020a038416600090815260208190526040902054821115613a6357600080fd5b600160a060020a0384166000908152600260209081526040808320338452909152902054821115613a9357600080fd5b600160a060020a038416600090815260208190526040902054613abc908363ffffffff613ba816565b600160a060020a038086166000908152602081905260408082209390935590851681522054613af1908363ffffffff613b9b16565b600160a060020a03808516600090815260208181526040808320949094559187168152600282528281203382529091522054613b33908363ffffffff613ba816565b600160a060020a03808616600081815260026020908152604080832033845282529182902094909455805186815290519287169391926000805160206147b0833981519152929181900390910190a35060019392505050565b613b996013613a22610ca0565b565b8181018281101561292f57fe5b600082821115613bb457fe5b50900390565b6000806000806009548611151515613bd157600080fd5b851515613be15760009350613d5b565b86541515613bf157849350613d5b565b85876000815481101515613c0157fe5b600091825260209091206002909102015410613c3f57866000815481101515613c2657fe5b9060005260206000209060020201600101549350613d5b565b8654869088906000198101908110613c5357fe5b9060005260206000209060020201600001541015613c7357849350613d5b565b8654869088906000198101908110613c8757fe5b9060005260206000209060020201600001541415613cb157865487906000198101908110613c2657fe5b8654600093506000190191505b82821115613d38576002828401049050858782815481101515613cdd57fe5b9060005260206000209060020201600001541415613cfd57809150613d38565b858782815481101515613d0c57fe5b9060005260206000209060020201600001541015613d2f57806001019250613d33565b8091505b613cbe565b8682815481101515613d4657fe5b90600052602060002090600202016001015493505b5050509392505050565b60008060006004845110613d7a576004613d7d565b83515b9150600090505b81811015613ddf5780600183030360080260020a8482815181101515613da657fe5b90602001015160f860020a900460f860020a0260f860020a9004028360e060020a90040160e060020a0292508080600101915050613d84565b5050919050565b6000600160a060020a0383161515613dfd57600080fd5b33600090815260208190526040902054821115613e1957600080fd5b33600090815260208190526040902054613e39908363ffffffff613ba816565b3360009081526020819052604080822092909255600160a060020a03851681522054613e6b908363ffffffff613b9b16565b600160a060020a038416600081815260208181526040918290209390935580518581529051919233926000805160206147b08339815191529281900390910190a350600192915050565b6000818310613ec45781611ec8565b5090919050565b600160a060020a0381161515613ee057600080fd5b600754604051600160a060020a038084169216907f8be0079c531659141344cd1fd0a4f28419497f9722a3daafe3b4186f6b6457e090600090a360078054600160a060020a031916600160a060020a0392909216919091179055565b600d54604080517fdc659907000000000000000000000000000000000000000000000000000000008152600160a060020a03878116600483015291516000938493849384938493929092169163dc65990791602480820192869290919082900301818387803b158015613fae57600080fd5b505af1158015613fc2573d6000803e3d6000fd5b5050505088945084600160a060020a03166315dae03e6040518163ffffffff1660e060020a028152600401602060405180830381600087803b15801561400757600080fd5b505af115801561401b573d6000803e3d6000fd5b505050506040513d602081101561403157600080fd5b505160ff81166000908152601660205260409020549094506014116140a0576040805160e560020a62461bcd02815260206004820152601f60248201527f4c696d6974206f66204d4158204d4f44554c4553206973207265616368656400604482015290519081900360640190fd5b84600160a060020a0316637e363ffa6040518163ffffffff1660e060020a028152600401602060405180830381600087803b1580156140de57600080fd5b505af11580156140f2573d6000803e3d6000fd5b505050506040513d602081101561410857600080fd5b505192508683111561418a576040805160e560020a62461bcd02815260206004820152602e60248201527f4d617820436f737420697320616c77617973206265206772656174657220746860448201527f616e206d6f64756c6520636f7374000000000000000000000000000000000000606482015290519081900360840190fd5b601054604080517f095ea7b3000000000000000000000000000000000000000000000000000000008152600160a060020a038c81166004830152602482018790529151919092169163095ea7b39160448083019260209291908290030181600087803b1580156141f957600080fd5b505af115801561420d573d6000803e3d6000fd5b505050506040513d602081101561422357600080fd5b505115156142a1576040805160e560020a62461bcd02815260206004820152602360248201527f4e6f742061626c6520746f20617070726f766520746865206d6f64756c65206360448201527f6f73740000000000000000000000000000000000000000000000000000000000606482015290519081900360840190fd5b6040517e7743600000000000000000000000000000000000000000000000000000000081526020600482018181528a5160248401528a51600160a060020a0389169362774360938d939283926044019185019080838360005b838110156143125781810151838201526020016142fa565b50505050905090810190601f16801561433f5780820380516001836020036101000a031916815260200191505b5092505050602060405180830381600087803b15801561435e57600080fd5b505af1158015614372573d6000803e3d6000fd5b505050506040513d602081101561438857600080fd5b5051601054604080517f095ea7b3000000000000000000000000000000000000000000000000000000008152600160a060020a038085166004830152602482018b9052915193955091169163095ea7b3916044808201926020929091908290030181600087803b1580156143fb57600080fd5b505af115801561440f573d6000803e3d6000fd5b505050506040513d602081101561442557600080fd5b5051151561447d576040805160e560020a62461bcd02815260206004820152601e60248201527f4e6f742061626c6520746f20617070726f766520746865206275646765740000604482015290519081900360640190fd5b84600160a060020a03166317d7de7c6040518163ffffffff1660e060020a028152600401602060405180830381600087803b1580156144bb57600080fd5b505af11580156144cf573d6000803e3d6000fd5b505050506040513d60208110156144e557600080fd5b505160ff8516600081815260166020908152604080832081518083018352868152600160a060020a0389811682860181815284546001808201875595895297879020935160029098029093019687559151959092018054600160a060020a031916958316959095179094558151868152908f16928101929092528181019290925260608101879052608081018a90524260a0820152905192935090917fc6c63fb8912a7f464252e66132ad69604864e7520f1bcf0dd77c8d51d810a6519160c0908290030190a2505050505050505050565b60095415156145c5576126e5565b8154151561460c57604080518082019091526009548152602080820183815284546001818101875560008781529390932093516002909102909301928355519101556126e5565b60095482548390600019810190811061462157fe5b906000526020600020906002020160000154141561463e576126e5565b6040805180820190915260095481526020808201928352835460018082018655600095865291909420915160029094029091019283559051910155565b815481835581811115610f4257600202816002028360005260206000209182019101610f429190614749565b828054600181600116156101000203166002900490600052602060002090601f016020900481019282601f106146e857805160ff1916838001178555614715565b82800160010185558215614715579182015b828111156147155782518255916020019190600101906146fa565b50614721929150614775565b5090565b815481835581811115610f4257600083815260209020610f42918101908301614775565b610ca491905b808211156147215760008155600181018054600160a060020a031916905560020161474f565b610ca491905b80821115614721576000815560010161477b56005472616e73666572206973206e6f742076616c69640000000000000000000000ddf252ad1be2c89b69c2b068fc378daa952ba7f163c4a11628f55a4df523b3efa165627a7a7230582004d9c6c4c665d605118e1c2aac0f5ac1d3d19ac02ffb8e38f82a47dbf4decb8b0029",
  "source": "pragma solidity ^0.4.24;\n\nimport \"openzeppelin-solidity/contracts/math/Math.sol\";\nimport \"../interfaces/IERC20.sol\";\nimport \"../interfaces/ISecurityToken.sol\";\nimport \"../interfaces/IModule.sol\";\nimport \"../interfaces/IModuleFactory.sol\";\nimport \"../interfaces/IModuleRegistry.sol\";\nimport \"../interfaces/IST20.sol\";\nimport \"../modules/TransferManager/ITransferManager.sol\";\nimport \"../modules/PermissionManager/IPermissionManager.sol\";\nimport \"../interfaces/ITokenBurner.sol\";\nimport \"../RegistryUpdater.sol\";\nimport \"openzeppelin-solidity/contracts/ReentrancyGuard.sol\";\n\n/**\n* @title Security Token contract\n* @notice SecurityToken is an ERC20 token with added capabilities:\n* @notice - Implements the ST-20 Interface\n* @notice - Transfers are restricted\n* @notice - Modules can be attached to it to control its behaviour\n* @notice - ST should not be deployed directly, but rather the SecurityTokenRegistry should be used\n*/\ncontract SecurityToken is ISecurityToken, ReentrancyGuard, RegistryUpdater {\n    using SafeMath for uint256;\n\n    bytes32 public constant securityTokenVersion = \"0.0.1\";\n\n    // Reference to token burner contract\n    ITokenBurner public tokenBurner;\n\n    // Use to halt all the transactions\n    bool public freeze = false;\n\n    struct ModuleData {\n        bytes32 name;\n        address moduleAddress;\n    }\n\n    // Structures to maintain checkpoints of balances for governance / dividends\n    struct Checkpoint {\n        uint256 checkpointId;\n        uint256 value;\n    }\n\n    mapping (address => Checkpoint[]) public checkpointBalances;\n    Checkpoint[] public checkpointTotalSupply;\n\n    bool public finishedIssuerMinting = false;\n    bool public finishedSTOMinting = false;\n\n    mapping (bytes4 => bool) transferFunctions;\n\n    // Module list should be order agnostic!\n    mapping (uint8 => ModuleData[]) public modules;\n\n    uint8 public constant MAX_MODULES = 20;\n\n    mapping (address => bool) public investorListed;\n\n    // Emit at the time when module get added\n    event LogModuleAdded(\n        uint8 indexed _type,\n        bytes32 _name,\n        address _moduleFactory,\n        address _module,\n        uint256 _moduleCost,\n        uint256 _budget,\n        uint256 _timestamp\n    );\n\n    // Emit when the token details get updated\n    event LogUpdateTokenDetails(string _oldDetails, string _newDetails);\n    // Emit when the granularity get changed\n    event LogGranularityChanged(uint256 _oldGranularity, uint256 _newGranularity);\n    // Emit when Module get removed from the securityToken\n    event LogModuleRemoved(uint8 indexed _type, address _module, uint256 _timestamp);\n    // Emit when the budget allocated to a module is changed\n    event LogModuleBudgetChanged(uint8 indexed _moduleType, address _module, uint256 _budget);\n    // Emit when all the transfers get freeze\n    event LogFreezeTransfers(bool _freeze, uint256 _timestamp);\n    // Emit when new checkpoint created\n    event LogCheckpointCreated(uint256 indexed _checkpointId, uint256 _timestamp);\n    // Emit when the minting get finished for the Issuer\n    event LogFinishMintingIssuer(uint256 _timestamp);\n    // Emit when the minting get finished for the STOs\n    event LogFinishMintingSTO(uint256 _timestamp);\n    // Change the STR address in the event of a upgrade\n    event LogChangeSTRAddress(address indexed _oldAddress, address indexed _newAddress);\n\n    // If _fallback is true, then for STO module type we only allow the module if it is set, if it is not set we only allow the owner\n    // for other _moduleType we allow both issuer and module.\n    modifier onlyModule(uint8 _moduleType, bool _fallback) {\n      //Loop over all modules of type _moduleType\n        bool isModuleType = false;\n        for (uint8 i = 0; i < modules[_moduleType].length; i++) {\n            isModuleType = isModuleType || (modules[_moduleType][i].moduleAddress == msg.sender);\n        }\n        if (_fallback && !isModuleType) {\n            if (_moduleType == STO_KEY)\n                require(modules[_moduleType].length == 0 && msg.sender == owner, \"Sender is not owner or STO module is attached\");\n            else\n                require(msg.sender == owner, \"Sender is not owner\");\n        } else {\n            require(isModuleType, \"Sender is not correct module type\");\n        }\n        _;\n    }\n\n    modifier checkGranularity(uint256 _amount) {\n        require(_amount % granularity == 0, \"Unable to modify token balances at this granularity\");\n        _;\n    }\n\n    // Checks whether the minting is allowed or not, check for the owner if owner is no the msg.sender then check\n    // for the finishedSTOMinting flag because only STOs and owner are allowed for minting\n    modifier isMintingAllowed() {\n        if (msg.sender == owner) {\n            require(!finishedIssuerMinting, \"Minting is finished for Issuer\");\n        } else {\n            require(!finishedSTOMinting, \"Minting is finished for STOs\");\n        }\n        _;\n    }\n\n    /**\n     * @notice Constructor\n     * @param _name Name of the SecurityToken\n     * @param _symbol Symbol of the Token\n     * @param _decimals Decimals for the securityToken\n     * @param _granularity granular level of the token\n     * @param _tokenDetails Details of the token that are stored off-chain (IPFS hash)\n     * @param _polymathRegistry Contract address of the polymath registry\n     */\n    constructor (\n        string _name,\n        string _symbol,\n        uint8 _decimals,\n        uint256 _granularity,\n        string _tokenDetails,\n        address _polymathRegistry\n    )\n    public\n    DetailedERC20(_name, _symbol, _decimals)\n    RegistryUpdater(_polymathRegistry)\n    {\n        //When it is created, the owner is the STR\n        updateFromRegistry();\n        tokenDetails = _tokenDetails;\n        granularity = _granularity;\n        transferFunctions[bytes4(keccak256(\"transfer(address,uint256)\"))] = true;\n        transferFunctions[bytes4(keccak256(\"transferFrom(address,address,uint256)\"))] = true;\n        transferFunctions[bytes4(keccak256(\"mint(address,uint256)\"))] = true;\n        transferFunctions[bytes4(keccak256(\"burn(uint256)\"))] = true;\n    }\n\n    /**\n     * @notice Function used to attach the module in security token\n     * @param _moduleFactory Contract address of the module factory that needs to be attached\n     * @param _data Data used for the intialization of the module factory variables\n     * @param _maxCost Maximum cost of the Module factory\n     * @param _budget Budget of the Module factory\n     */\n    function addModule(\n        address _moduleFactory,\n        bytes _data,\n        uint256 _maxCost,\n        uint256 _budget\n    ) external onlyOwner nonReentrant {\n        _addModule(_moduleFactory, _data, _maxCost, _budget);\n    }\n\n    /**\n    * @notice _addModule handles the attachment (or replacement) of modules for the ST\n    * @dev  E.G.: On deployment (through the STR) ST gets a TransferManager module attached to it\n    * @dev to control restrictions on transfers.\n    * @dev You are allowed to add a new moduleType if:\n    * @dev - there is no existing module of that type yet added\n    * @dev - the last member of the module list is replacable\n    * @param _moduleFactory is the address of the module factory to be added\n    * @param _data is data packed into bytes used to further configure the module (See STO usage)\n    * @param _maxCost max amount of POLY willing to pay to module. (WIP)\n    */\n    function _addModule(address _moduleFactory, bytes _data, uint256 _maxCost, uint256 _budget) internal {\n        //Check that module exists in registry - will throw otherwise\n        IModuleRegistry(moduleRegistry).useModule(_moduleFactory);\n        IModuleFactory moduleFactory = IModuleFactory(_moduleFactory);\n        uint8 moduleType = moduleFactory.getType();\n        require(modules[moduleType].length < MAX_MODULES, \"Limit of MAX MODULES is reached\");\n        uint256 moduleCost = moduleFactory.setupCost();\n        require(moduleCost <= _maxCost, \"Max Cost is always be greater than module cost\");\n        //Approve fee for module\n        require(ERC20(polyToken).approve(_moduleFactory, moduleCost), \"Not able to approve the module cost\");\n        //Creates instance of module from factory\n        address module = moduleFactory.deploy(_data);\n        //Approve ongoing budget\n        require(ERC20(polyToken).approve(module, _budget), \"Not able to approve the budget\");\n        //Add to SecurityToken module map\n        bytes32 moduleName = moduleFactory.getName();\n        modules[moduleType].push(ModuleData(moduleName, module));\n        //Emit log event\n        emit LogModuleAdded(moduleType, moduleName, _moduleFactory, module, moduleCost, _budget, now);\n    }\n\n    /**\n    * @notice Removes a module attached to the SecurityToken\n    * @param _moduleType is which type of module we are trying to remove\n    * @param _moduleIndex is the index of the module within the chosen type\n    */\n    function removeModule(uint8 _moduleType, uint8 _moduleIndex) external onlyOwner {\n        require(_moduleIndex < modules[_moduleType].length,\n        \"Module index doesn't exist as per the choosen module type\");\n        require(modules[_moduleType][_moduleIndex].moduleAddress != address(0),\n        \"Module contract address should not be 0x\");\n        //Take the last member of the list, and replace _moduleIndex with this, then shorten the list by one\n        emit LogModuleRemoved(_moduleType, modules[_moduleType][_moduleIndex].moduleAddress, now);\n        modules[_moduleType][_moduleIndex] = modules[_moduleType][modules[_moduleType].length - 1];\n        modules[_moduleType].length = modules[_moduleType].length - 1;\n    }\n\n    /**\n     * @notice Returns module list for a module type\n     * @param _moduleType is which type of module we are trying to get\n     * @param _moduleIndex is the index of the module within the chosen type\n     * @return bytes32\n     * @return address\n     */\n    function getModule(uint8 _moduleType, uint _moduleIndex) public view returns (bytes32, address) {\n        if (modules[_moduleType].length > 0) {\n            return (\n                modules[_moduleType][_moduleIndex].name,\n                modules[_moduleType][_moduleIndex].moduleAddress\n            );\n        } else {\n            return (\"\", address(0));\n        }\n\n    }\n\n    /**\n     * @notice returns module list for a module name - will return first match\n     * @param _moduleType is which type of module we are trying to get\n     * @param _name is the name of the module within the chosen type\n     * @return bytes32\n     * @return address\n     */\n    function getModuleByName(uint8 _moduleType, bytes32 _name) public view returns (bytes32, address) {\n        if (modules[_moduleType].length > 0) {\n            for (uint256 i = 0; i < modules[_moduleType].length; i++) {\n                if (modules[_moduleType][i].name == _name) {\n                  return (\n                      modules[_moduleType][i].name,\n                      modules[_moduleType][i].moduleAddress\n                  );\n                }\n            }\n            return (\"\", address(0));\n        } else {\n            return (\"\", address(0));\n        }\n    }\n\n    /**\n    * @notice allows the owner to withdraw unspent POLY stored by them on the ST.\n    * @dev Owner can transfer POLY to the ST which will be used to pay for modules that require a POLY fee.\n    * @param _amount amount of POLY to withdraw\n    */\n    function withdrawPoly(uint256 _amount) public onlyOwner {\n        require(ERC20(polyToken).transfer(owner, _amount), \"In-sufficient balance\");\n    }\n\n    /**\n    * @notice allows owner to approve more POLY to one of the modules\n    * @param _moduleType module type\n    * @param _moduleIndex module index\n    * @param _budget new budget\n    */\n    function changeModuleBudget(uint8 _moduleType, uint8 _moduleIndex, uint256 _budget) public onlyOwner {\n        require(_moduleType != 0, \"Module type cannot be zero\");\n        require(_moduleIndex < modules[_moduleType].length, \"Incorrrect module index\");\n        uint256 _currentAllowance = IERC20(polyToken).allowance(address(this), modules[_moduleType][_moduleIndex].moduleAddress);\n        if (_budget < _currentAllowance) {\n            require(IERC20(polyToken).decreaseApproval(modules[_moduleType][_moduleIndex].moduleAddress, _currentAllowance.sub(_budget)), \"Insufficient balance to decreaseApproval\");\n        } else {\n            require(IERC20(polyToken).increaseApproval(modules[_moduleType][_moduleIndex].moduleAddress, _budget.sub(_currentAllowance)), \"Insufficient balance to increaseApproval\");\n        }\n        emit LogModuleBudgetChanged(_moduleType, modules[_moduleType][_moduleIndex].moduleAddress, _budget);\n    }\n\n    /**\n     * @notice change the tokenDetails\n     * @param _newTokenDetails New token details\n     */\n    function updateTokenDetails(string _newTokenDetails) public onlyOwner {\n        emit LogUpdateTokenDetails(tokenDetails, _newTokenDetails);\n        tokenDetails = _newTokenDetails;\n    }\n\n    /**\n    * @notice allows owner to change token granularity\n    * @param _granularity granularity level of the token\n    */\n    function changeGranularity(uint256 _granularity) public onlyOwner {\n        require(_granularity != 0, \"Granularity can not be 0\");\n        emit LogGranularityChanged(granularity, _granularity);\n        granularity = _granularity;\n    }\n\n    /**\n    * @notice keeps track of the number of non-zero token holders\n    * @param _from sender of transfer\n    * @param _to receiver of transfer\n    * @param _value value of transfer\n    */\n    function adjustInvestorCount(address _from, address _to, uint256 _value) internal {\n        if ((_value == 0) || (_from == _to)) {\n            return;\n        }\n        // Check whether receiver is a new token holder\n        if ((balanceOf(_to) == 0) && (_to != address(0))) {\n            investorCount = investorCount.add(1);\n        }\n        // Check whether sender is moving all of their tokens\n        if (_value == balanceOf(_from)) {\n            investorCount = investorCount.sub(1);\n        }\n        //Also adjust investor list\n        if (!investorListed[_to] && (_to != address(0))) {\n            investors.push(_to);\n            investorListed[_to] = true;\n        }\n\n    }\n\n    /**\n    * @notice removes addresses with zero balances from the investors list\n    * @param _start Index in investor list at which to start removing zero balances\n    * @param _iters Max number of iterations of the for loop\n    * NB - pruning this list will mean you may not be able to iterate over investors on-chain as of a historical checkpoint\n    */\n    function pruneInvestors(uint256 _start, uint256 _iters) public onlyOwner {\n        for (uint256 i = _start; i < Math.min256(_start.add(_iters), investors.length); i++) {\n            if ((i < investors.length) && (balanceOf(investors[i]) == 0)) {\n                investorListed[investors[i]] = false;\n                investors[i] = investors[investors.length - 1];\n                investors.length--;\n            }\n        }\n    }\n\n    /**\n     * @notice gets length of investors array\n     * NB - this length may differ from investorCount if list has not been pruned of zero balance investors\n     * @return length\n     */\n    function getInvestorsLength() public view returns(uint256) {\n        return investors.length;\n    }\n\n    /**\n     * @notice freeze all the transfers\n     */\n    function freezeTransfers() public onlyOwner {\n        require(!freeze);\n        freeze = true;\n        emit LogFreezeTransfers(freeze, now);\n    }\n\n    /**\n     * @notice un-freeze all the transfers\n     */\n    function unfreezeTransfers() public onlyOwner {\n        require(freeze);\n        freeze = false;\n        emit LogFreezeTransfers(freeze, now);\n    }\n\n    /**\n     * @notice adjust totalsupply at checkpoint after minting or burning tokens\n     */\n    function adjustTotalSupplyCheckpoints() internal {\n        adjustCheckpoints(checkpointTotalSupply, totalSupply());\n    }\n\n    /**\n     * @notice adjust token holder balance at checkpoint after a token transfer\n     * @param _investor address of the token holder affected\n     */\n    function adjustBalanceCheckpoints(address _investor) internal {\n        adjustCheckpoints(checkpointBalances[_investor], balanceOf(_investor));\n    }\n\n    /**\n     * @notice store the changes to the checkpoint objects\n     * @param _checkpoints the affected checkpoint object array\n     * @param _newValue the new value that needs to be stored\n     */\n    function adjustCheckpoints(Checkpoint[] storage _checkpoints, uint256 _newValue) internal {\n        //No checkpoints set yet\n        if (currentCheckpointId == 0) {\n            return;\n        }\n        //No previous checkpoint data - add current balance against checkpoint\n        if (_checkpoints.length == 0) {\n            _checkpoints.push(\n                Checkpoint({\n                    checkpointId: currentCheckpointId,\n                    value: _newValue\n                })\n            );\n            return;\n        }\n        //No new checkpoints since last update\n        if (_checkpoints[_checkpoints.length - 1].checkpointId == currentCheckpointId) {\n            return;\n        }\n        //New checkpoint, so record balance\n        _checkpoints.push(\n            Checkpoint({\n                checkpointId: currentCheckpointId,\n                value: _newValue\n            })\n        );\n    }\n\n    /**\n     * @notice Overloaded version of the transfer function\n     * @param _to receiver of transfer\n     * @param _value value of transfer\n     * @return bool success\n     */\n    function transfer(address _to, uint256 _value) public returns (bool success) {\n        adjustInvestorCount(msg.sender, _to, _value);\n        require(verifyTransfer(msg.sender, _to, _value), \"Transfer is not valid\");\n        adjustBalanceCheckpoints(msg.sender);\n        adjustBalanceCheckpoints(_to);\n        require(super.transfer(_to, _value));\n        return true;\n    }\n\n    /**\n     * @notice Overloaded version of the transferFrom function\n     * @param _from sender of transfer\n     * @param _to receiver of transfer\n     * @param _value value of transfer\n     * @return bool success\n     */\n    function transferFrom(address _from, address _to, uint256 _value) public returns (bool success) {\n        adjustInvestorCount(_from, _to, _value);\n        require(verifyTransfer(_from, _to, _value), \"Transfer is not valid\");\n        adjustBalanceCheckpoints(_from);\n        adjustBalanceCheckpoints(_to);\n        require(super.transferFrom(_from, _to, _value));\n        return true;\n    }\n\n    /**\n     * @notice validate transfer with TransferManager module if it exists\n     * @dev TransferManager module has a key of 2\n     * @param _from sender of transfer\n     * @param _to receiver of transfer\n     * @param _amount value of transfer\n     * @return bool\n     */\n    function verifyTransfer(address _from, address _to, uint256 _amount) public checkGranularity(_amount) returns (bool) {\n        if (!freeze) {\n            bool isTransfer = false;\n            if (transferFunctions[getSig(msg.data)]) {\n              isTransfer = true;\n            }\n            if (modules[TRANSFERMANAGER_KEY].length == 0) {\n                return true;\n            }\n            bool isInvalid = false;\n            bool isValid = false;\n            bool isForceValid = false;\n            for (uint8 i = 0; i < modules[TRANSFERMANAGER_KEY].length; i++) {\n                ITransferManager.Result valid = ITransferManager(modules[TRANSFERMANAGER_KEY][i].moduleAddress).verifyTransfer(_from, _to, _amount, isTransfer);\n                if (valid == ITransferManager.Result.INVALID) {\n                    isInvalid = true;\n                }\n                if (valid == ITransferManager.Result.VALID) {\n                    isValid = true;\n                }\n                if (valid == ITransferManager.Result.FORCE_VALID) {\n                    isForceValid = true;\n                }\n            }\n            return isForceValid ? true : (isInvalid ? false : isValid);\n      }\n      return false;\n    }\n\n    /**\n     * @notice End token minting period permanently for Issuer\n     */\n    function finishMintingIssuer() public onlyOwner {\n        finishedIssuerMinting = true;\n        emit LogFinishMintingIssuer(now);\n    }\n\n    /**\n     * @notice End token minting period permanently for STOs\n     */\n    function finishMintingSTO() public onlyOwner {\n        finishedSTOMinting = true;\n        emit LogFinishMintingSTO(now);\n    }\n\n    /**\n     * @notice mints new tokens and assigns them to the target _investor.\n     * @dev Can only be called by the STO attached to the token (Or by the ST owner if there's no STO attached yet)\n     * @param _investor Address to whom the minted tokens will be dilivered\n     * @param _amount Number of tokens get minted\n     * @return success\n     */\n    function mint(address _investor, uint256 _amount) public onlyModule(STO_KEY, true) checkGranularity(_amount) isMintingAllowed() returns (bool success) {\n        require(_investor != address(0), \"Investor address should not be 0x\");\n        adjustInvestorCount(address(0), _investor, _amount);\n        require(verifyTransfer(address(0), _investor, _amount), \"Transfer is not valid\");\n        adjustBalanceCheckpoints(_investor);\n        adjustTotalSupplyCheckpoints();\n        totalSupply_ = totalSupply_.add(_amount);\n        balances[_investor] = balances[_investor].add(_amount);\n        emit Minted(_investor, _amount);\n        emit Transfer(address(0), _investor, _amount);\n        return true;\n    }\n\n    /**\n     * @notice mints new tokens and assigns them to the target _investor.\n     * Can only be called by the STO attached to the token (Or by the ST owner if there's no STO attached yet)\n     * @param _investors A list of addresses to whom the minted tokens will be dilivered\n     * @param _amounts A list of number of tokens get minted and transfer to corresponding address of the investor from _investor[] list\n     * @return success\n     */\n    function mintMulti(address[] _investors, uint256[] _amounts) public onlyModule(STO_KEY, true) returns (bool success) {\n        require(_investors.length == _amounts.length, \"Mis-match in the length of the arrays\");\n        for (uint256 i = 0; i < _investors.length; i++) {\n            mint(_investors[i], _amounts[i]);\n        }\n        return true;\n    }\n\n    /**\n     * @notice Validate permissions with PermissionManager if it exists, If no Permission return false\n     * @dev Note that IModule withPerm will allow ST owner all permissions anyway\n     * @dev this allows individual modules to override this logic if needed (to not allow ST owner all permissions)\n     * @param _delegate address of delegate\n     * @param _module address of PermissionManager module\n     * @param _perm the permissions\n     * @return success\n     */\n    function checkPermission(address _delegate, address _module, bytes32 _perm) public view returns(bool) {\n        if (modules[PERMISSIONMANAGER_KEY].length == 0) {\n            return false;\n        }\n\n        for (uint8 i = 0; i < modules[PERMISSIONMANAGER_KEY].length; i++) {\n            if (IPermissionManager(modules[PERMISSIONMANAGER_KEY][i].moduleAddress).checkPermission(_delegate, _module, _perm)) {\n                return true;\n            }\n        }\n    }\n\n    /**\n     * @notice used to set the token Burner address. It only be called by the owner\n     * @param _tokenBurner Address of the token burner contract\n     */\n    function setTokenBurner(address _tokenBurner) public onlyOwner {\n        tokenBurner = ITokenBurner(_tokenBurner);\n    }\n\n    /**\n     * @notice Burn function used to burn the securityToken\n     * @param _value No. of token that get burned\n     */\n    function burn(uint256 _value) checkGranularity(_value) public {\n        adjustInvestorCount(msg.sender, address(0), _value);\n        require(tokenBurner != address(0), \"Token Burner contract address is not set yet\");\n        require(verifyTransfer(msg.sender, address(0), _value), \"Transfer is not valid\");\n        require(_value <= balances[msg.sender], \"Value should no be greater than the balance of msg.sender\");\n        adjustBalanceCheckpoints(msg.sender);\n        adjustTotalSupplyCheckpoints();\n        // no need to require value <= totalSupply, since that would imply the\n        // sender's balance is greater than the totalSupply, which *should* be an assertion failure\n\n        balances[msg.sender] = balances[msg.sender].sub(_value);\n        require(tokenBurner.burn(msg.sender, _value), \"Token burner process is not validated\");\n        totalSupply_ = totalSupply_.sub(_value);\n        emit Burnt(msg.sender, _value);\n        emit Transfer(msg.sender, address(0), _value);\n    }\n\n    /**\n     * @notice Get function signature from _data\n     * @param _data passed data\n     * @return bytes4 sig\n     */\n    function getSig(bytes _data) internal pure returns (bytes4 sig) {\n        uint len = _data.length < 4 ? _data.length : 4;\n        for (uint i = 0; i < len; i++) {\n            sig = bytes4(uint(sig) + uint(_data[i]) * (2 ** (8 * (len - 1 - i))));\n        }\n    }\n\n    /**\n     * @notice Creates a checkpoint that can be used to query historical balances / totalSuppy\n     * @return uint256\n     */\n    function createCheckpoint() public onlyModule(CHECKPOINT_KEY, true) returns(uint256) {\n        require(currentCheckpointId < 2**256 - 1);\n        currentCheckpointId = currentCheckpointId + 1;\n        emit LogCheckpointCreated(currentCheckpointId, now);\n        return currentCheckpointId;\n    }\n\n    /**\n     * @notice Queries totalSupply as of a defined checkpoint\n     * @param _checkpointId Checkpoint ID to query\n     * @return uint256\n     */\n    function totalSupplyAt(uint256 _checkpointId) public view returns(uint256) {\n        return getValueAt(checkpointTotalSupply, _checkpointId, totalSupply());\n    }\n\n    /**\n     * @notice Queries value at a defined checkpoint\n     * @param checkpoints is array of Checkpoint objects\n     * @param _checkpointId Checkpoint ID to query\n     * @param _currentValue Current value of checkpoint\n     * @return uint256\n     */\n    function getValueAt(Checkpoint[] storage checkpoints, uint256 _checkpointId, uint256 _currentValue) internal view returns(uint256) {\n        require(_checkpointId <= currentCheckpointId);\n        //Checkpoint id 0 is when the token is first created - everyone has a zero balance\n        if (_checkpointId == 0) {\n          return 0;\n        }\n        if (checkpoints.length == 0) {\n            return _currentValue;\n        }\n        if (checkpoints[0].checkpointId >= _checkpointId) {\n            return checkpoints[0].value;\n        }\n        if (checkpoints[checkpoints.length - 1].checkpointId < _checkpointId) {\n            return _currentValue;\n        }\n        if (checkpoints[checkpoints.length - 1].checkpointId == _checkpointId) {\n            return checkpoints[checkpoints.length - 1].value;\n        }\n        uint256 min = 0;\n        uint256 max = checkpoints.length - 1;\n        while (max > min) {\n            uint256 mid = (max + min) / 2;\n            if (checkpoints[mid].checkpointId == _checkpointId) {\n                max = mid;\n                break;\n            }\n            if (checkpoints[mid].checkpointId < _checkpointId) {\n                min = mid + 1;\n            } else {\n                max = mid;\n            }\n        }\n        return checkpoints[max].value;\n    }\n\n    /**\n     * @notice Queries balances as of a defined checkpoint\n     * @param _investor Investor to query balance for\n     * @param _checkpointId Checkpoint ID to query as of\n     */\n    function balanceOfAt(address _investor, uint256 _checkpointId) public view returns(uint256) {\n        return getValueAt(checkpointBalances[_investor], _checkpointId, balanceOf(_investor));\n    }\n\n}\n",
  "sourcePath": "/Users/victorvicente/Repos/Polymath/polymath-core/contracts/tokens/SecurityToken.sol",
  "compiler": {
    "name": "solc",
    "version": "0.4.24+commit.e67f0147.Emscripten.clang"
  },
  "schemaVersion": "2.0.1",
  "updatedAt": "2018-10-08T11:54:57.746Z"
}